:020000040800F2
:1000000000000220156B0008656B0008656B000896
:10001000656B0008656B0008656B00080000000058
:10002000000000000000000000000000416A00081D
:10003000656B0008000000004F6A00085D6A000858
:10004000656B0008656B0008656B0008656B000850
:10005000656B0008656B0008656B0008656B000840
:10006000656B0008656B0008656B0008656B000830
:10007000656B0008656B0008656B0008656B000820
:10008000656B0008656B0008656B0008656B000810
:10009000656B0008656B0008656B0008656B000800
:1000A000656B0008656B0008656B0008656B0008F0
:1000B000656B0008656B0008656B0008656B0008E0
:1000C000656B0008656B0008656B0008656B0008D0
:1000D000656B0008656B0008656B0008656B0008C0
:1000E000656B0008656B0008656B0008656B0008B0
:1000F000656B0008656B0008656B0008656B0008A0
:10010000656B00086D6A0008656B0008656B000888
:10011000656B0008656B0008656B0008656B00087F
:10012000656B0008656B0008656B0008816A000854
:10013000656B0008656B0008656B0008656B00085F
:10014000656B0008656B0008656B0008656B00084F
:10015000656B0008956A0008656B0008656B000810
:10016000656B0008656B0008656B0008656B00082F
:10017000656B0008656B0008656B000800000000F7
:08018000656B0008656B0008C7
:1001880010B5054C237833B9044B13B10448AFF3C9
:1001980000800123237010BD0C0000200000000027
:1001A800B06B000808B5034B1BB103490348AFF314
:1001B800008008BD0000000010000020B06B00089F
:1001C80053B94AB9002908BF00281CBF4FF0FF31B6
:1001D8004FF0FF3000F07AB9ADF1080C6DE904CEAC
:1001E80000F006F8DDF804E0DDE9022304B070470A
:1001F8002DE9F0478C460D460446089E002B51D148
:100208008A4217466DD9B2FA82FEBEF1000F0BD0B2
:10021800CEF1200C01FA0EF520FA0CFC02FA0EF7CA
:100228004CEA050C00FA0EF44FEA174A250CBCFB01
:10023800FAF81FFA87F90AFB18CC45EA0C4508FBBF
:1002480009F3AB420AD9ED1908F1FF3280F0238196
:10025800AB4240F22081A8F102083D44ED1AA4B255
:10026800B5FBFAF00AFB105544EA054400FB09F90E
:10027800A14509D9E41900F1FF3380F00A81A145AD
:1002880040F2078102383C44A4EB090440EA0840E4
:100298000021002E61D024FA0EF40023346073602C
:1002A800BDE8F0878B4207D9002E54D0002186E89C
:1002B80021000846BDE8F087B3FA83F1002940F031
:1002C8008E80AB4202D3824200F2FA80841A65EB38
:1002D80003050120AC46002E3FD086E81010BDE88B
:1002E800F08712B90127B7FBF2F7B7FA87FEBEF11C
:1002F800000F34D1EB1B3A0C1FFA87FC0121B3FB2A
:10030800F2F8250C02FB183345EA03450CFB08F309
:10031800AB4207D9ED1908F1FF3002D2AB4200F227
:10032800D1808046ED1AA3B2B5FBF2F002FB10555E
:1003380043EA05440CFB00FCA44507D9E41900F185
:10034800FF3302D2A44500F2B8801846A4EB0C048F
:1003580040EA08409DE731463046BDE8F087CEF1D7
:10036800200405FA0EF307FA0EF720FA04F83A0CFF
:1003780025FA04F448EA0308B4FBF2F14FEA1845F9
:1003880002FB11441FFA87FC45EA044501FB0CF304
:10039800AB4200FA0EF409D9ED1901F1FF3080F0F3
:1003A8008A80AB4240F2878002393D44EB1A1FFA3B
:1003B80088F5B3FBF2F002FB103345EA034500FB76
:1003C8000CF3AB4207D9ED1900F1FF386FD2AB42FD
:1003D8006DD902383D44EB1A40EA01418FE7C1F17B
:1003E800200722FA07F88B4005FA01F448EA0303CC
:1003F80020FA07FE4FEA134CFD404EEA040EB5FB07
:10040800FCF94FEA1E440CFB19551FFA83F844EA1D
:10041800054509FB08F4AC4202FA01F200FA01FAB8
:1004280008D9ED1809F1FF3043D2AC4241D9A9F1FE
:1004380002091D442D1B1FFA8EFEB5FBFCF00CFBB8
:1004480010554EEA054400FB08F8A04507D9E41802
:1004580000F1FF3529D2A04527D902381C4440EACB
:100468000940A4EB0804A0FB02894C45C6464D464A
:1004780015D312D056B1BAEB0E0364EB050404FA97
:1004880007F7CB401F43CC40376074600021BDE8BC
:10049800F0871846F8E69046E0E6C245EAD2B8EB9F
:1004A800020E69EB03050138E4E72846D7E7404622
:1004B80091E78146BEE7014678E702383C4445E7C4
:1004C800084608E7A8F102083D442BE7704700BF3B
:1004D80080B500AF0E4A0E4B1B6843F400731360DF
:1004E8000B4A0B4B1B6843F480631360084A084BA4
:1004F8001B6843F480731360032000F047F9002061
:1005080000F008F806F046FA0023184680BD00BF40
:10051800003C024080B582B000AF7860124B1A6888
:10052800124B1B7819464FF47A73B3FBF1F3B2FB05
:10053800F3F3184600F05FF90346002B01D00123BE
:100548000EE07B680F2B0AD8002279684FF0FF3045
:1005580000F027F9064A7B681360002300E00123B6
:1005680018460837BD4680BD08000020040000205A
:100578000000002080B400AF064B1B781A46064BDB
:100588001B681344044A136000BFBD465DF8047B32
:10059800704700BF040000206400002080B400AF52
:1005A800034B1B681846BD465DF8047B704700BFC7
:1005B8006400002080B584B000AF7860FFF7EEFFDC
:1005C800B8607B68FB60FB68B3F1FF3F05D0094B5F
:1005D8001B781A46FB681344FB6000BFFFF7DEFF79
:1005E8000246BB68D21AFB689A42F7D300BF10379D
:1005F800BD4680BD0400002080B485B000AF78609F
:100608007B6803F00703FB600C4BDB68BB60BA68D0
:100618004FF6FF031340BB60FB681A02BB68134325
:1006280043F0BF6343F40033BB60044ABB68D36044
:1006380000BF1437BD465DF8047B704700ED00E04D
:1006480080B400AF044BDB681B0A03F007031846AD
:10065800BD465DF8047B704700ED00E080B483B0D0
:1006680000AF0346FB71094997F907305B09FA792E
:1006780002F01F02012000FA02F241F8232000BF15
:100688000C37BD465DF8047B704700BF00E100E011
:1006980080B483B000AF03463960FB7197F9073027
:1006A800002B0BDA0D49FB7903F00F03043B3A6882
:1006B800D2B21201D2B20B441A7609E0084997F96E
:1006C80007303A68D2B21201D2B20B4483F8002341
:1006D80000BF0C37BD465DF8047B704700ED00E0B5
:1006E80000E100E080B489B000AFF860B9607A60DA
:1006F800FB6803F00703FB61FB69C3F10703042BE5
:1007080028BF0423BB61FB690433062B02D9FB69AC
:10071800033B00E000237B610122BB6902FA03F37B
:100728005A1EBB681A407B699A4001217B6901FA0D
:1007380003F3591E7B680B40134318462437BD4604
:100748005DF8047B7047000080B582B000AF786028
:100758007B68013BB3F1807F01D301230FE00A4A94
:100768007B68013B53600F214FF0FF30FFF790FF8C
:10077800054B00229A60044B07221A600023184692
:100788000837BD4680BD00BF10E000E080B582B0EC
:1007980000AF78607868FFF72FFF00BF0837BD46C5
:1007A80080BD80B586B000AF0346B9607A60FB7340
:1007B80000237B61FFF744FF78617A68B96878693C
:1007C800FFF790FF024697F90F3011461846FFF7DA
:1007D8005FFF00BF1837BD4680BD80B582B000AF4F
:1007E8000346FB7197F907301846FFF737FF00BF3C
:1007F8000837BD4680BD80B582B000AF78607868A4
:10080800FFF7A2FF034618460837BD4680BD000023
:1008180080B483B000AF78607B68042B06D1094AA6
:10082800084B1B6843F00403136005E0054A054BB9
:100838001B6823F00403136000BF0C37BD465DF846
:10084800047B704710E000E080B500AF00F002F8CC
:1008580000BF80BD80B400AF00BFBD465DF8047B1B
:100868007047000080B586B000AF786000237B61D8
:10087800FFF794FE38617B68002B01D1012399E0D2
:100888007B68002283F834207B68022283F83520B5
:100898007B681B687A681268126822F001021A6085
:1008A8000FE0FFF77BFE02463B69D31A052B08D9F8
:1008B8007B6820225A657B68032283F8352003234E
:1008C80078E07B681B681B6803F00103002BE8D104
:1008D8007B681B681B687B617A69384B13407B61B6
:1008E8007B685A687B689B681A437B68DB681A4395
:1008F8007B681B691A437B685B691A437B689B6941
:100908001A437B68DB691A437B681B6A13437A695D
:1009180013437B617B685B6A042B07D17B68DA6AC7
:100928007B681B6B13437A6913437B617B681B6885
:100938007A691A607B681B685B697B617B6923F055
:1009480007037B617B685B6A7A6913437B617B6819
:100958005B6A042B17D17B689B6A7A6913437B61B6
:100968007B68DB6A002B0ED0786800F099FA0346A2
:10097800002B08D07B6840225A657B68012283F8E7
:100988003520012316E07B681B687A695A6178680C
:1009980000F050FA0346FB607B68DB6D3F229A400B
:1009A800FB689A607B6800225A657B68012283F89D
:1009B8003520002318461837BD4680BD3F8010F00B
:1009C80080B586B000AFF860B9607A603B600023FC
:1009D800FB75FB689B6D3B61FB6893F83430012B1A
:1009E80001D1022348E0FB68012283F83420FB6828
:1009F80093F83530DBB2012B37D1FB68022283F83C
:100A08003520FB6800225A653B687A68B968F8683F
:100A180000F0E2F9FB68DB6D3F229A403B699A607F
:100A2800FB681B68FA681268126842F016021A60BE
:100A3800FB681B68FA681268526942F080025A61C2
:100A4800FB681B6C002B07D0FB681B68FA681268F0
:100A5800126842F008021A60FB681B68FA6812689C
:100A6800126842F001021A6005E0FB68002283F870
:100A780034200223FB75FB7D18461837BD4680BD20
:100A880080B483B000AF78607B6893F83530DBB210
:100A9800022B04D07B6880225A6501230CE07B6816
:100AA800052283F835207B681B687A68126812680B
:100AB80022F001021A60002318460C37BD465DF883
:100AC800047B704780B586B000AF78600023BB60B8
:100AD800924B1B68924AA2FB03239B0A7B617B68AB
:100AE8009B6D3B613B691B68FB607B68DB6D082283
:100AF8009A40FB681340002B1AD07B681B681B6860
:100B080003F00403002B13D07B681B687A68126813
:100B1800126822F004021A607B68DB6D08229A4092
:100B28003B699A607B685B6D43F001027B685A659C
:100B38007B68DB6D01229A40FB681340002B12D0C2
:100B48007B681B685B6903F08003002B0BD07B6814
:100B5800DB6D01229A403B699A607B685B6D43F0CC
:100B680002027B685A657B68DB6D04229A40FB6849
:100B78001340002B12D07B681B681B6803F002032C
:100B8800002B0BD07B68DB6D04229A403B699A608E
:100B98007B685B6D43F004027B685A657B68DB6D9C
:100BA80010229A40FB681340002B43D07B681B68D7
:100BB8001B6803F00803002B3CD07B68DB6D102218
:100BC8009A403B699A607B681B681B6803F4802322
:100BD800002B18D07B681B681B6803F40023002BCC
:100BE80008D17B681B6C002B24D07B681B6C786851
:100BF80098471FE07B689B6C002B1BD07B689B6C25
:100C08007868984716E07B681B681B6803F4807354
:100C1800002B07D17B681B687A681268126822F07B
:100C280008021A607B681B6C002B03D07B681B6C66
:100C3800786898477B68DB6D20229A40FB681340F0
:100C4800002B00F08E807B681B681B6803F0100384
:100C5800002B00F086807B68DB6D20229A403B6980
:100C68009A607B6893F83530DBB2052B36D17B6808
:100C78001B687A681268126822F016021A607B688C
:100C88001B687A681268526922F080025A617B6890
:100C98001B6C002B03D17B689B6C002B07D07B68F7
:100CA8001B687A681268126822F008021A607B686A
:100CB800DB6D3F229A403B699A607B68002283F88B
:100CC80034207B68012283F835207B681B6D002B5C
:100CD8007DD07B681B6D7868984778E07B681B68D7
:100CE8001B6803F48023002B1CD07B681B681B68DF
:100CF80003F40023002B08D17B685B6C002B30D0F9
:100D08007B685B6C786898472BE07B68DB6B002B13
:100D180027D07B68DB6B7868984722E008000020C2
:100D2800B5814E1B7B681B681B6803F48073002B1E
:100D38000FD17B681B687A681268126822F010026B
:100D48001A607B68002283F834207B68012283F8CC
:100D580035207B68DB6B002B03D07B68DB6B786806
:100D680098477B685B6D002B32D07B685B6D03F026
:100D78000103002B22D07B68052283F835207B688D
:100D88001B687A681268126822F001021A60BB6850
:100D98000133BB607A69934207D87B681B681B687C
:100DA80003F00103002BF2D100E000BF7B680022B2
:100DB80083F834207B68012283F835207B68DB6C5C
:100DC800002B05D07B68DB6C7868984700E000BF93
:100DD8001837BD4680BD00BF80B485B000AFF8604D
:100DE800B9607A603B60FB681B68FA681268126831
:100DF80022F480221A60FB681B683A685A60FB6814
:100E08009B68402B08D1FB681B687A689A60FB686E
:100E18001B68BA68DA6007E0FB681B68BA689A6002
:100E2800FB681B687A68DA6000BF1437BD465DF856
:100E3800047B704780B485B000AF78607B681B681E
:100E4800DBB2103B144AA2FB03231B09FB60134AC5
:100E5800FB6813441B781A467B68DA65FB68032B2A
:100E680009D97B681B6823F47F7323F003031A1DD9
:100E78007B689A6507E07B681B6823F47F7323F01F
:100E880003037A6893657B689B6D18461437BD46E3
:100E98005DF8047B704700BFABAAAAAA686C00087B
:100EA80080B485B000AF78600023FB737B689B6AD1
:100EB800BB607B689B69002B1FD1BB68032B55D88F
:100EC80001A252F823F000BFE10E0008F30E00085B
:100ED800E10E0008750F00087B68DB6A03F0807379
:100EE800002B45D00123FB7342E07B68DB6AB3F13A
:100EF800C07F3FD10123FB733CE07B689B69B3F55E
:100F0800005F21D1BB68032B36D801A252F823F029
:100F1800290F00082F0F0008290F0008410F0008AB
:100F28000123FB732FE07B68DB6A03F08073002BDF
:100F380024D00123FB7321E07B68DB6AB3F1C07F17
:100F48001ED10123FB731BE0BB68022B02D9032BC4
:100F580003D018E00123FB7315E07B68DB6A03F01C
:100F68008073002B0ED00123FB730BE000BF0AE057
:100F780000BF08E000BF06E000BF04E000BF02E0D9
:100F880000BF00E000BFFB7B18461437BD465DF884
:100F9800047B704780B489B000AF78603960002363
:100FA8007B6100233B610023BB610023FB616BE194
:100FB8000122FB6902FA03F37B613B681A687B69CB
:100FC80013403B613A697B699A4240F05A813B6819
:100FD8005B68022B03D03B685B68122B23D1FB694B
:100FE800DA087B68083253F82230BB61FB6903F0EA
:100FF80007039B000F2202FA03F3DB43BA6913408D
:10100800BB613B681A69FB6903F007039B0002FA9E
:1010180003F3BA691343BB61FB69DA087B680832DA
:10102800B96943F822107B681B68BB61FB695B00E8
:10103800032202FA03F3DB43BA691340BB613B683E
:101048005B6803F00302FB695B0002FA03F3BA6909
:101058001343BB617B68BA691A603B685B68012B04
:101068000BD03B685B68022B07D03B685B68112B91
:1010780003D03B685B68122B30D17B689B68BB61EF
:10108800FB695B00032202FA03F3DB43BA691340EE
:10109800BB613B68DA68FB695B0002FA03F3BA6973
:1010A8001343BB617B68BA699A607B685B68BB6104
:1010B8000122FB6902FA03F3DB43BA691340BB61FF
:1010C8003B685B681B0903F00102FB6902FA03F342
:1010D800BA691343BB617B68BA695A607B68DB688D
:1010E800BB61FB695B00032202FA03F3DB43BA69C5
:1010F8001340BB613B689A68FB695B0002FA03F323
:10110800BA691343BB617B68BA69DA603B685B689C
:1011180003F08053002B00F0B4800023FB605F4A8B
:101128005E4B5B6C43F4804353645C4B5B6C03F431
:101138008043FB60FB685A4AFB699B08023352F8FC
:101148002330BB61FB6903F003039B000F2202FA03
:1011580003F3DB43BA691340BB617B68514A93428E
:101168002BD07B68504A934225D07B684F4A9342E4
:101178001FD07B684E4A934219D07B684D4A9342F0
:1011880013D07B684C4A93420DD07B684B4A9342FC
:1011980007D07B684A4A934201D107230EE008230F
:1011A8000CE006230AE0052308E0042306E00323F5
:1011B80004E0022302E0012300E00023FA6902F0C0
:1011C800030292009340BA691343BB613449FB6937
:1011D8009B080233BA6941F823203A4B1B68BB616C
:1011E8003B69DB43BA691340BB613B685B6803F446
:1011F8008033002B03D0BA693B691343BB61314A82
:10120800BB6913602F4B5B68BB613B69DB43BA6901
:101218001340BB613B685B6803F40033002B03D0C9
:10122800BA693B691343BB61264ABB695360254BC6
:101238009B68BB613B69DB43BA691340BB613B6890
:101248005B6803F48013002B03D0BA693B6913432E
:10125800BB611C4ABB6993601A4BDB68BB613B6985
:10126800DB43BA691340BB613B685B6803F4001356
:10127800002B03D0BA693B691343BB61114ABB69B0
:10128800D360FB690133FB61FB690F2B7FF690AEDE
:1012980000BF2437BD465DF8047B70470038024024
:1012A80000380140000002400004024000080240EB
:1012B800000C0240001002400014024000180240D6
:1012C800001C0240003C014080B483B000AF78604D
:1012D8000B467B8013467B707B78002B03D07A8883
:1012E8007B689A6103E07B881A047B689A6100BF77
:1012F8000C37BD465DF8047B7047000080B586B0AA
:1013080000AF78607B68002B01D101232DE27B6858
:101318001B6803F00103002B75D0A34B9B6803F0F7
:101328000C03042B0CD0A04B9B6803F00C03082B78
:1013380012D19D4B5B6803F48003B3F5800F0BD18A
:10134800994B1B6803F40033002B5BD07B685B6808
:10135800002B57D1012308E27B685B68B3F5803F17
:1013680006D1914A904B1B6843F4803313601DE00B
:101378007B685B68B3F5A02F0CD18B4A8A4B1B683E
:1013880043F480231360884A874B1B6843F48033F7
:1013980013600BE0844A844B1B6823F4803313608A
:1013A800814A814B1B6823F4802313607B685B6848
:1013B800002B13D0FFF7F2F8386108E0FFF7EEF8DA
:1013C80002463B69D31A642B01D90323CDE1764B3E
:1013D8001B6803F40033002BF0D014E0FFF7DEF8AD
:1013E800386108E0FFF7DAF802463B69D31A642B44
:1013F80001D90323B9E16C4B1B6803F40033002BBC
:10140800F0D100E000BF7B681B6803F00203002BEB
:1014180063D0654B9B6803F00C03002B0BD0624B29
:101428009B6803F00C03082B1CD15F4B5B6803F42B
:101438008003002B16D15C4B1B6803F00203002BC2
:1014480005D07B68DB68012B01D001238DE156496B
:10145800554B1B6823F0F8027B681B69DB001343BC
:101468000B603AE07B68DB68002B20D04F4B0122F1
:101478001A60FFF793F8386108E0FFF78FF8024623
:101488003B69D31A022B01D903236EE1464B1B6833
:1014980003F00203002BF0D04349434B1B6823F0B1
:1014A800F8027B681B69DB0013430B6015E03F4BB8
:1014B80000221A60FFF772F8386108E0FFF76EF84B
:1014C80002463B69D31A022B01D903234DE1364B5F
:1014D8001B6803F00203002BF0D17B681B6803F044
:1014E8000803002B30D07B685B69002B16D0304B8B
:1014F80001221A60FFF752F8386108E0FFF74EF84A
:1015080002463B69D31A022B01D903232DE1264B4E
:101518005B6F03F00203002BF0D015E0244B002290
:101528001A60FFF73BF8386108E0FFF737F8024622
:101538003B69D31A022B01D9032316E11A4B5B6FBF
:1015480003F00203002BF0D17B681B6803F004034F
:10155800002B00F0A0800023FB75134B1B6C03F0DD
:101568008053002B0FD10023FB600F4A0E4B1B6CDE
:1015780043F0805313640C4B1B6C03F08053FB60E7
:10158800FB680123FB750B4B1B6803F48073002B6E
:1015980021D1084A074B1B6843F480731360FEF798
:1015A800FDFF386111E000BF0038024000004742EB
:1015B800800E474200700040FEF7F0FF02463B698C
:1015C800D31A022B01D90323CFE06A4B1B6803F41B
:1015D8008073002BF0D07B689B68012B06D1664A8C
:1015E800654B1B6F43F0010313671CE07B689B6826
:1015F800052B0CD1604A604B1B6F43F00403136743
:101608005D4A5D4B1B6F43F0010313670BE05A4AB9
:10161800594B1B6F23F001031367574A564B1B6F37
:1016280023F0040313677B689B68002B15D0FEF733
:10163800B5FF38610AE0FEF7B1FF02463B69D31AED
:1016480041F28832934201D903238EE04A4B1B6F43
:1016580003F00203002BEED014E0FEF79FFF386181
:101668000AE0FEF79BFF02463B69D31A41F2883233
:10167800934201D9032378E03F4B1B6F03F0020329
:10168800002BEED1FB7D012B05D13B4A3A4B1B6C5D
:1016980023F0805313647B689B69002B64D0364B1E
:1016A8009B6803F00C03082B5CD07B689B69022BBA
:1016B80041D1324B00221A60FEF770FF386108E012
:1016C800FEF76CFF02463B69D31A022B01D90323AC
:1016D8004BE0294B1B6803F00073002BF0D126491F
:1016E8007B68DA697B681B6A1A437B685B6A9B01C3
:1016F8001A437B689B6A5B08013B1B041A437B689F
:10170800DB6A1B0613434B601C4B01221A60FEF771
:1017180045FF386108E0FEF741FF02463B69D31AEE
:10172800022B01D9032320E0134B1B6803F000733D
:10173800002BF0D018E0114B00221A60FEF72EFFA4
:10174800386108E0FEF72AFF02463B69D31A022BEC
:1017580001D9032309E0084B1B6803F00073002B31
:10176800F0D101E0012300E0002318461837BD46F8
:1017780080BD00BF00700040003802406000474252
:1017880080B584B000AF786039607B68002B01D1E8
:101798000123CAE0674B1B6803F00F023B689A42BB
:1017A8000CD2644B3A68D2B21A70624B1B6803F0D1
:1017B8000F023B689A4201D00123B6E07B681B68A0
:1017C80003F00203002B20D07B681B6803F004039E
:1017D800002B05D0584A584B9B6843F4E05393605C
:1017E8007B681B6803F00803002B05D0524A524B54
:1017F8009B6843F4604393604F494F4B9B6823F0C9
:10180800F0027B689B6813438B607B681B6803F05E
:101818000103002B44D07B685B68012B07D1464B42
:101828001B6803F40033002B19D101237DE07B688A
:101838005B68022B03D07B685B68032B07D13E4BA8
:101848001B6803F00073002B09D101236DE03A4BAC
:101858001B6803F00203002B01D1012365E0364920
:10186800354B9B6823F003027B685B6813438B60EE
:10187800FEF794FEF8600AE0FEF790FE0246FB6869
:10188800D31A41F28832934201D903234DE02A4BFF
:101898009B6803F00C027B685B689B009A42EBD163
:1018A800244B1B6803F00F023B689A420CD9214B6A
:1018B8003A68D2B21A701F4B1B6803F00F023B68DC
:1018C8009A4201D0012330E07B681B6803F00403CF
:1018D800002B08D01849184B9B6823F4E0527B680A
:1018E800DB6813438B607B681B6803F00803002BDD
:1018F80009D01149104B9B6823F460427B681B692F
:10190800DB0013438B6000F01DF801460A4B9B680F
:101918001B0903F00F03094AD35C21FA03F3084AB1
:1019280013600020FEF7F6FD002318461037BD4669
:1019380080BD00BF003C024000380240046D000832
:10194800080000202DE9F04F8FB000AF0023FB62A4
:1019580000237B630023BB6200233B63624B9B68CD
:1019680003F00C03042B07D0082B08D0002B40F001
:10197800B2805E4B3B63B1E05D4B3B63AEE05A4BDC
:101988005B6803F03F03FB62574B5B6803F480031B
:10199800002B4ED0544B5B689B094FF0000440F27B
:1019A800FF114FF0000201EA030102EA04020B46AC
:1019B800144660017862786A40EAD36078625B0115
:1019C8003B62D7E908345B1A64EB02044FEA8419D6
:1019D80049EA93694FEA8318B8EB030869EB0409ED
:1019E8004FEAC903FB61FB6943EA5873FB614FEA9D
:1019F800C803BB61D7E9068918EB010849EB02095E
:101A08004FEA49237B617B6943EAD8537B614FEAFC
:101A180048233B61D7E9048940464946FB6A4FF0B1
:101A280000041A462346FEF7CBFB03460C467B63AD
:101A380043E02D4B5B689B094FF0000440F2FF1117
:101A48004FF0000201EA030102EA04020B461446C1
:101A58006001F860F86840EAD360F8605B01BB6039
:101A6800D7E902345B1A64EB0204A60146EA9366DE
:101A78009D01ED1A66EB0406F3007B607B6843EA80
:101A880055737B60EB003B6097E860006D1846EB90
:101A980002064FEA862B4BEA955B4FEA852A5546A4
:101AA8005E4628463146FB6A4FF000041A46234634
:101AB800FEF786FB03460C467B630B4B5B681B0CEF
:101AC80003F0030301335B00BB627A6BBB6AB2FBB2
:101AD800F3F33B6302E0054B3B6300BF3B6B1846E7
:101AE8003C37BD46BDE8F08F003802400024F400C2
:101AF80000127A0080B400AF034B1B681846BD463D
:101B08005DF8047B704700BF0800002080B582B0F4
:101B180000AF78607B68002B01D101231DE07B6852
:101B280093F83430DBB2002B05D17B6800221A779A
:101B3800786804F05DFE7B68032283F834207868B7
:101B480000F010F87B6800229A637B6800221A6311
:101B58007B68012283F83420002318460837BD46E5
:101B680080BD0000B0B58EB004AF786000237B6202
:101B78000023FB6000233B6100237B610023BB61E2
:101B88000023FB6176233B627B681D686C4607F186
:101B9800180393E8070084E8070007F10C030ECB4D
:101BA800284601F08FFA1C4B00221A607B681B68DC
:101BB800184601F0D0FA184B01221A600220FEF7ED
:101BC800F9FC786800F0FCFF78627B6A002B0BD088
:101BD8007B68012283F834207B689A6B7B6A1A43FE
:101BE8007B689A63012313E0786800F020FF78622D
:101BF8007B6A002B0BD07B68012283F834207B683A
:101C08009A6B7B6A1A437B689A63012300E000237E
:101C180018462837BD46B0BDA080254280B58CB097
:101C280000AFF860B9607A603B600023FB62BB6874
:101C3800002B07D1FB689B6B43F00062FB689A633B
:101C48000123ABE0FB6893F83430DBB2012B40F0A2
:101C5800A480FB6800229A637A683B681A44FB6890
:101C6800DB6D9A4207D9FB689B6B43F00072FB68F7
:101C78009A63012392E0FB68032283F83420FB680F
:101C88001B680022DA62FB681B68FA681268D26B6C
:101C980042F49572DA63FB68DB6B424ADA63FB68ED
:101CA800DB6B414ADA64FB68DB6B00221A65FB6870
:101CB800D86BFB681B6880331946BA683B685B02BF
:101CC8009B08FEF77DFE394B01221A60FB685B6CAE
:101CD800012B02D07B685B027B604FF0FF337B6196
:101CE8003B685B02BB619023FB6102233B620023DC
:101CF8007B620123BB62FB681B6807F11402114673
:101D0800184601F090FAFB681B684FF400711846FA
:101D180001F0B5FAF862FB6A002B10D0FB681B686B
:101D280040F2FF529A63FB689A6BFB6A1A43FB689E
:101D38009A63FB68012283F8342001232EE03B6874
:101D4800012B0AD9FB6882221A63FB681B68796831
:101D5800184601F0DCFAF86209E0FB6881221A6390
:101D6800FB681B687968184601F0ADFAF862FB6AEF
:101D7800002B10D0FB681B6840F2FF529A63FB6887
:101D88009A6BFB6A1A43FB689A63FB68012283F823
:101D98003420012302E0002300E0022318463037F4
:101DA800BD4680BD47280008B52800088C85254217
:101DB80080B58CB000AFF860B9607A603B600023F2
:101DC800FB62BB68002B07D1FB689B6B43F000628A
:101DD800FB689A630123ABE0FB6893F83430DBB20D
:101DE800012B40F0A480FB6800229A637A683B6864
:101DF8001A44FB68DB6D9A4207D9FB689B6B43F07A
:101E08000072FB689A63012392E0FB68032283F85F
:101E18003420FB681B680022DA62FB681B68FA68DA
:101E28001268D26B42F01A02DA63FB681B6C424AF2
:101E3800DA63FB681B6C414ADA64FB681B6C00229E
:101E48001A65FB685B6C012B02D07B685B027B60C8
:101E5800FB681B684FF40071184601F010FAF8622D
:101E6800FB6A002B10D0FB681B6840F2FF529A6394
:101E7800FB689A6BFB6A1A43FB689A63FB6801224A
:101E880083F83420012353E03B68012B0AD9FB680F
:101E9800A0221A63FB681B687968184601F07FFA6C
:101EA800F86209E0FB6890221A63FB681B6879688E
:101EB800184601F050FAF862FB6A002B10D0FB6854
:101EC8001B6840F2FF529A63FB689A6BFB6A1A43DD
:101ED800FB689A63FB68012283F83420012327E01A
:101EE800174B01221A60FB68186CB968FB681B68FD
:101EF80080331A463B685B029B08FEF761FD4FF092
:101F0800FF337B613B685B02BB619023FB6100236D
:101F18003B6200237B620123BB62FB681B6807F1FD
:101F280014021146184601F07EF9002300E002234E
:101F380018463037BD4680BD1D280008B528000862
:101F48008C85254280B584B000AF78600023FB60A3
:101F58007B681B685B6B03F48073002B00F08D803B
:101F68007B681B684FF480729A637B681A687B6889
:101F78001B68DB6B23F44E7323F00203D3637B6887
:101F88001B6B03F00803002B3AD07B681B6B03F034
:101F98000203002B05D17B681B6B03F02003002B89
:101FA80011D07B681B68184601F01EFAF860FB68C0
:101FB800002B08D07B689A6BFB681A437B689A638E
:101FC800786800F025F97B681B6840F2FF529A6335
:101FD8007B68012283F834207B681B6B03F00103C4
:101FE800002B05D17B681B6B03F00203002B03D089
:101FF800786804F0EDF803E1786804F0DFF8FFE0B2
:102008007B681B6B03F08003002B00F0F9807B6872
:102018001B6B03F02003002B11D07B681B6818464C
:1020280001F0E2F9F860FB68002B08D07B689A6B36
:10203800FB681A437B689A63786800F0E9F87B6864
:102048001B6B03F00103002B40F0DA807B681B6BED
:1020580003F00203002B40F0D3807B681B687A688A
:102068001268D26A22F00802DA627B68012283F8D9
:102078003420786804F0A2F8C2E07B681B685B6BC8
:1020880003F48043002B08D07B681B684FF4804220
:102098009A63786800F0F0FFB2E07B681B685B6BBE
:1020A80003F40043002B08D07B681B684FF4004200
:1020B8009A63786800F0B8FFA2E07B681B685A6BE7
:1020C80040F23A231340002B00F09A807B681B688B
:1020D8005B6B03F00203002B05D07B689B6B43F01E
:1020E80002027B689A637B681B685B6B03F00803DA
:1020F800002B05D07B689B6B43F008027B689A63D2
:102108007B681B685B6B03F02003002B05D07B68A2
:102118009B6B43F020027B689A637B681B685B6B50
:1021280003F01003002B05D07B689B6B43F0100273
:102138007B689A637B681B685B6B03F40073002BF6
:1021480005D07B689B6B43F008027B689A637B68C9
:102158001B6840F2FF729A637B681A687B681B6889
:10216800DB6B23F44E7323F00203D3637B681B6B92
:1021780003F08003002B36D07B681B6C002B11D03A
:102188007B681B6C204A1A657B681B6C1846FEF737
:1021980077FC0346002B33D07B681B6C184600F095
:1021A800CAFB2DE07B68DB6B002B11D07B68DB6BF7
:1021B800164A1A657B68DB6B1846FEF761FC034616
:1021C800002B1DD07B68DB6B184600F0F2FB17E094
:1021D8007B6800229A637B68012283F83420786840
:1021E80003F0E2FF0CE07B681B6B03F00803002B95
:1021F80006D07B68012283F83420786800F008F85C
:1022080000BF1037BD4680BD3F290008BB29000824
:1022180080B483B000AF786000BF0C37BD465DF86E
:10222800047B704790B484B000AF786039600023B5
:10223800FB607B685B6E1B0EFB60FB689B09DBB277
:1022480003F00303DAB23B681A70FB689B08DBB241
:1022580003F00F03DAB23B685A70FB68DBB203F095
:102268000303DAB23B689A707B685B6E1B0CDBB2C7
:10227800FB60FB68DAB23B68DA707B685B6E1B0A4E
:10228800DBB2FB60FB68DAB23B681A717B685B6E95
:10229800DBB2FB60FB68DAB23B685A717B689B6E05
:1022A8001B0EFB60FB689BB21B019AB23B68DA808D
:1022B8007B689B6E1B0CDBB2FB603B68DB889AB2C9
:1022C800FB681B099BB203F00F039BB213439AB23E
:1022D8003B68DA80FB68DBB203F00F03DAB23B68D5
:1022E8001A727B689B6E1B0ADBB2FB60FB68DB091A
:1022F800DBB203F00103DAB23B685A72FB689B0950
:10230800DBB203F00103DAB23B689A72FB685B093F
:10231800DBB203F00103DAB23B68DA72FB681B092F
:10232800DBB203F00103DAB23B681A733B680022A0
:102338005A737B685B6C002B40F08680FB689B02BD
:1023480003F440623B681A617B689B6EDBB2FB60FA
:102358003B681A69FB689B001A433B681A617B68F3
:10236800DB6E1B0EDBB2FB603B681A69FB689B09DE
:1023780003F003031A433B681A61FB68DB08DBB20E
:1023880003F00703DAB23B681A75FB68DBB203F0A7
:102398000703DAB23B685A757B68DB6E1B0CDBB24D
:1023A800FB60FB685B09DBB203F00703DAB23B684A
:1023B8009A75FB689B08DBB203F00703DAB23B6847
:1023C800DA75FB68DBB25B00DBB203F00603DAB256
:1023D8003B681A767B68DB6E1B0ADBB2FB603B68E6
:1023E8001B7EDAB2FB68DB09DBB203F00103DBB268
:1023F8001343DAB23B681A763B681B695A1C7B6840
:102408005A653B681B7EDBB2023301229A407B6827
:102418005B6D02FB03F27B685A653B681B7ADBB293
:102428001A46012303FA02F27B689A657B685B6DA2
:102438007A68926D520A02FB03F27B68DA657B6860
:102448004FF400721A6651E07B685B6C012B3CD13B
:102458007B689B6EDBB2FB60FB681B0403F47C1299
:102468003B681A617B68DB6E1B0EDBB2FB603B6866
:102478001A69FB681B021A433B681A617B68DB6EAA
:102488001B0CDBB2FB603B681A69FB681A433B68AC
:102498001A617B68DB6E1B0ADBB2FB603B681B6959
:1024A8004FF00004013344F100049A027B685A6536
:1024B8007B685A6D7B68DA657B684FF400729A65B1
:1024C8007B689A6D7B681A6610E07B681B6840F22F
:1024D800FF529A637B689B6B43F080527B689A63D8
:1024E8007B68012283F834200123C1E0FB689B0943
:1024F800DBB203F00103DAB23B685A76FB68DBB261
:102508005B00DBB203F07E03DAB23B689A767B6845
:10251800DB6EDBB2FB603B689B7EDAB2FB68DB09F3
:10252800DBB203F00103DBB21343DAB23B689A76FD
:10253800FB68DBB203F07F03DAB23B68DA767B68CC
:102548001B6F1B0EDBB2FB60FB68DB09DBB203F021
:102558000103DAB23B681A77FB685B09DBB203F068
:102568000303DAB23B685A77FB689B08DBB203F0D7
:102578000703DAB23B689A77FB68DBB29B00DBB2F1
:1025880003F00C03DAB23B68DA777B681B6F1B0C2D
:10259800DBB2FB603B68DB7FDAB2FB689B09DBB22E
:1025A80003F00303DBB21343DAB23B68DA77FB6864
:1025B8005B09DBB203F00103DAB23B6883F8202041
:1025C8003B68002283F82120FB68DBB203F001039B
:1025D800DAB23B6883F822207B681B6F1B0ADBB2E8
:1025E800FB60FB68DB09DBB203F00103DAB23B688E
:1025F80083F82320FB689B09DBB203F00103DAB2FE
:102608003B6883F82420FB685B09DBB203F0010315
:10261800DAB23B6883F82520FB681B09DBB203F0BC
:102628000103DAB23B6883F82620FB689B08DBB21B
:1026380003F00303DAB23B6883F82720FB68DBB2B8
:1026480003F00303DAB23B6883F828207B681B6F2A
:10265800DBB2FB60FB685B08DBB203F07F03DAB236
:102668003B6883F829203B68012283F82A2000234D
:1026780018461037BD4690BC704780B483B000AF91
:10268800786039607B685A6C3B681A607B689A6C22
:102698003B685A607B68DA6C3B689A607B681A6DA5
:1026A8003B68DA607B685A6D3B681A617B689A6D93
:1026B8003B685A617B68DA6D3B689A617B681A6E81
:1026C8003B68DA61002318460C37BD465DF8047B89
:1026D8007047B0B58EB004AF7860396000237B6274
:1026E8007B68032283F834207B685B6C032B2ED035
:1026F8003B68B3F5805F06D17B689B6B43F08052E3
:102708007B689A6329E03B68B3F5006F0AD1786863
:1027180000F028FB78627B689A6B7B6A1A437B68B7
:102728009A631AE03B68002B0AD1786800F067FBCF
:1027380078627B689A6B7B6A1A437B689A630CE0C1
:102748007B689B6B43F000627B689A6305E07B685B
:102758009B6B43F080527B689A637B689B6B002B72
:102768000AD07B681B6840F2FF529A637B6801229B
:1027780083F83420012324E07B685B68FB607B6876
:102788009B683B617B68DB687B613B68BB617B68FE
:102798005B69FB617B689B693B627B681D686C4673
:1027A80007F1180393E8070084E8070007F10C0312
:1027B8000ECB284600F086FC7B68012283F8342083
:1027C800002318462837BD46B0BD80B586B000AF97
:1027D80078600423FB7500233B610023FB6007F14D
:1027E8000C031946786800F093FA38613B69002BAE
:1027F80005D07B689A6B3B691A437B689A63FB68D0
:102808005B0ADBB203F00F03FB75FB7D1846183734
:10281800BD4680BD80B485B000AF78607B689B6B97
:10282800FB60FB681B68FA681268D26B42F480721E
:10283800DA6300BF1437BD465DF8047B704780B586
:1028480084B000AF78607B689B6BFB600023BB6043
:10285800FB681B6B822B11D1FB681B68184600F0C4
:10286800C3FDB860BB68002B08D0FB689A6BBB68D7
:102878001A43FB689A63F868FFF7CAFCFB681B6891
:10288800FA681268D26A22F00802DA62FB681B68EA
:1028980040F2FF529A63FB68012283F83420F868FB
:1028A80003F096FC00BF1037BD4680BD80B584B0EC
:1028B80000AF78607B689B6BFB60FB68DB6B5B6DD4
:1028C800012B04D0FB681B6C5B6D012B2CD1FB68C2
:1028D8001B6840F2FF529A63FB681B68FA6812682B
:1028E800D26B22F49D72DA63FB689B6B43F08042E3
:1028F800FB689A63F868FFF768FF0346FB72FB7A88
:10290800062B02D0FB7A052B0AD1FB681B681846F8
:1029180000F06AFD0246FB689B6B1A43FB689A63EA
:10292800FB68012283F83420F868FFF771FC00BFC8
:102938001037BD4680BD80B584B000AF78607B6835
:102948009B6BFB60FB681B6C002B02D0FB680022B2
:102958001A64FB68DB6B002B27D1F868FFF735FF9B
:102968000346FB72FB6800229A63FB68012283F826
:102978003420FB7A062B02D0FB7A052B15D1FB6895
:102988001B68184600F030FD0246FB689B6B1A4333
:10299800FB689A63FB689B6B002B03D0F86803F015
:1029A80003FC02E0F868FFF733FC00BF1037BD46B0
:1029B80080BD80B584B000AF78607B689B6BFB609E
:1029C800FB68DB6B002B02D0FB680022DA63FB6834
:1029D8001B6C002B27D1F868FFF7F7FE0346FB7244
:1029E800FB6800229A63FB68012283F83420FB7A93
:1029F800062B02D0FB7A052B15D1FB681B681846FD
:102A080000F0F2FC0246FB689B6B1A43FB689A6372
:102A1800FB689B6B002B03D0F86803F0C5FB02E052
:102A2800F868FFF7F5FB00BF1037BD4680BDB0B5AD
:102A380094B004AF78600023FB630123FB817B68BB
:102A48001B68184600F095FB0346002B02D14FF097
:102A58008063B1E07B685B6C032B2FD07B681B68BD
:102A6800184600F0DBFDF863FB6B002B01D0FB6B15
:102A7800A2E07B681B680021184600F0BFFB0246F5
:102A88007B685A677B681B680421184600F0B6FB10
:102A980002467B689A677B681B680821184600F025
:102AA800ADFB02467B68DA677B681B680C21184619
:102AB80000F0A4FB02467B68C3F880207B685B6C4F
:102AC800032B0DD07B681B6807F10E0211461846D0
:102AD80000F0E5FDF863FB6B002B01D0FB6B6BE0AE
:102AE8007B685B6C032B36D0FB891A467B681A65BA
:102AF8007B681A687B681B6D1B041946104600F03A
:102B0800ADFDF863FB6B002B01D0FB6B54E07B68D9
:102B18001B680021184600F071FB02467B685A6664
:102B28007B681B680421184600F068FB02467B6836
:102B38009A667B681B680821184600F05FFB02460E
:102B48007B68DA667B681B680C21184600F056FB28
:102B580002467B681A677B681B680421184600F0E8
:102B68004DFB03461A0D7B68DA6407F1100319461A
:102B78007868FFF757FB7B6819687B681B6D1B0437
:102B88004FF000041A462346084600F051FCF8634B
:102B9800FB6B002B01D0FB6B0EE07B681D687B682C
:102BA8006C4603F1100207CA84E8070004330ECB11
:102BB800284600F087FA002318464037BD46B0BDC6
:102BC80080B586B000AF78600023BB6000237B61CE
:102BD80000233B610023FB607B681B68184600F0FC
:102BE8004CFCF860FB68002B01D0FB688CE07B682C
:102BF8001B68184600F061FCF860FB68002B3DD0AC
:102C08007B6800229A6432E0BB685A1CBA604FF6AF
:102C1800FF72934202D14FF0807375E07B681B68A6
:102C28000021184600F06AFCF860FB68002B02D00F
:102C38004FF0805368E07B681B680021184600F05D
:102C480081FCF860FB68002B02D04FF080535BE0FA
:102C58007B681B680021184600F0D0FA78617B6910
:102C6800DB0F012B01D1012300E000233B613B690D
:102C7800002BC9D07B6800225A6444E07B6801229B
:102C88009A6431E0BB685A1CBA604FF6FF729342EF
:102C980002D14FF0807337E07B681B68002118462B
:102CA80000F02CFCF860FB68002B01D0FB682BE0DF
:102CB8007B681B684FF08041184600F043FCF860C1
:102CC800FB68002B01D0FB681EE07B681B680021B5
:102CD800184600F093FA78617B69DB0F012B01D16C
:102CE800012300E000233B613B69002BCAD07B69CC
:102CF80003F08043002B03D07B6801225A6402E072
:102D08007B6800225A64002318461837BD4680BDE8
:102D180080B584B000AF786039600023FB603B6801
:102D2800002B02D14FF0006318E07B681A687B68BB
:102D38001B6D1B041946104600F0D4FCF860FB68B4
:102D4800002B01D0FB6809E07B681B68002118464E
:102D580000F054FA02463B681A6000231846103700
:102D6800BD4680BD80B586B000AF78600023FB60AB
:102D780000233B6100237B617B681B6800211846A8
:102D880000F03CFA034603F00073B3F1007F02D170
:102D98004FF400632FE007F10C031946786800F040
:102DA8007BF878617B69002B01D07B6923E03B6964
:102DB80003F48023002B1CD07B681A687B681B6D8A
:102DC8001B041946104600F099FB78617B69002BBB
:102DD80001D07B690FE07B681B680221184600F070
:102DE800D6FB78617B69002B01D07B6903E0002367
:102DF80001E04FF0806318461837BD4680BD80B5A6
:102E080086B000AF78600023FB6000233B6100239D
:102E18007B617B681B680021184600F0EFF90346C8
:102E280003F00073B3F1007F02D14FF400632FE089
:102E380007F10C031946786800F02EF878617B6971
:102E4800002B01D07B6923E03B6903F48033002B1E
:102E58001CD07B681A687B681B6D1B0419461046DA
:102E680000F04CFB78617B69002B01D07B690FE097
:102E78007B681B680021184600F089FB78617B6934
:102E8800002B01D07B6903E0002301E04FF0806351
:102E980018461837BD4680BD90B58FB000AF786032
:102EA800396000233B63FDF779FBF86200237B63FD
:102EB8000023FB6000233B617B681B6808211846E0
:102EC80000F0DDF938633B6B002B01D03B6BA7E0CA
:102ED8007B681A687B681B6D1B041946104600F056
:102EE8000DFB38633B6B002B01D03B6B98E04FF038
:102EF800FF337B610823BB613023FB6102233B6204
:102F080000237B620123BB627B681B6807F1140204
:102F18001146184600F087F97B681B68184600F0D0
:102F28005AFB38633B6B002B22D03B6B78E07B6805
:102F38001B685B6B03F40013002B0ED07B6B9B00AC
:102F480007F10C02D4187B681B68184600F0E5F8F6
:102F5800034623607B6B01337B63FDF71FFB02464F
:102F6800FB6AD31AB3F1FF3F02D14FF0004357E099
:102F78007B681B685A6B40F22A431340002BD6D05B
:102F88007B681B685B6B03F00803002B05D07B682C
:102F98001B6808229A63082342E07B681B685B6B06
:102FA80003F00203002B05D07B681B6802229A639A
:102FB800022335E07B681B685B6B03F02003002B62
:102FC80005D07B681B6820229A63202328E07B6851
:102FD8001B6840F2FF529A633B680433FA68110693
:102FE800FA68120202F47F021143FA68120A02F424
:102FF8007F421143FA68120E0A431A603B691A06A7
:103008003B691B0203F47F031A433B691B0A03F461
:103018007F431A433B691B0E1A433B681A6000231F
:1030280018463C37BD4690BD90B585B000AF786076
:103038000023FB607B689B6ABB600023FB600DE09C
:10304800FB689B00BA68D4187B681B68184600F0B8
:1030580064F803462360FB680133FB60FB68072BB9
:10306800EED97B689B6A03F120027B689A62002391
:1030780018461437BD4690BD80B584B000AF78605F
:103088000023FB607B681B6ABB600023FB600BE0CE
:103098007B681868FB689B00BA681344194600F0FF
:1030A80049F8FB680133FB60FB68072BF0D97B68A4
:1030B8001B6A03F120027B681A6200231846103746
:1030C800BD4680BD84B080B485B000AF786007F19C
:1030D8001C0080E80E000023FB60FA693B6A1A4373
:1030E8007B6A1A43BB6A1A43FB6A1A433B6B134356
:1030F800FA681343FB607B685B6823F4FD4323F0A5
:103108007F03FA681A437B685A600023184614370D
:10311800BD465DF8047B04B0704780B483B000AF4F
:1031280078607B68D3F8803018460C37BD465DF868
:10313800047B704780B483B000AF786039603B6827
:103148001A687B68C3F88020002318460C37BD46F0
:103158005DF8047B704780B483B000AF78607B680B
:1031680003221A60002318460C37BD465DF8047B1D
:10317800704780B483B000AF78607B681B6803F049
:10318800030318460C37BD465DF8047B704780B4CE
:1031980085B000AF786039600023FB603B681A682F
:1031A8007B689A603B685A683B689B681A433B682F
:1031B800DB681A433B681B691343FA681343FB60D7
:1031C8007B68DB6823F47F6323F00F03FA681A43F4
:1031D8007B68DA60002318461437BD465DF8047B27
:1031E800704780B483B000AF78607B681B69DBB23E
:1031F80018460C37BD465DF8047B704780B485B02F
:1032080000AF786039600023FB607B6814331A468E
:103218003B681344FB60FB681B6818461437BD46BF
:103228005DF8047B704780B485B000AF7860396082
:103238000023FB603B681A687B685A623B685A68DF
:103248007B689A623B689A683B68DB681A433B680C
:103258001B691A433B685B691343FA681343FB60B5
:103268007B68DB6A23F0F702FB681A437B68DA6243
:10327800002318461437BD465DF8047B704780B5B7
:1032880088B000AF786039600023FB613B68BB60A1
:103298001023FB6040233B6100237B614FF4806374
:1032A800BB6107F1080319467868FFF770FF41F220
:1032B80088321021786800F063FAF861FB691846D3
:1032C8002037BD4680BD80B588B000AF78603960D2
:1032D8000023FB613B68BB601123FB6040233B611B
:1032E80000237B614FF48063BB6107F10803194633
:1032F8007868FFF74CFF41F288321121786800F0B6
:103308003FFAF861FB6918462037BD4680BD80B595
:1033180088B000AF786039600023FB613B68BB6010
:103328001223FB6040233B6100237B614FF48063E1
:10333800BB6107F1080319467868FFF728FF41F2D7
:1033480088321221786800F01BFAF861FB69184688
:103358002037BD4680BD80B588B000AF7860396041
:103368000023FB613B68BB601823FB6040233B6183
:1033780000237B614FF48063BB6107F108031946A2
:103388007868FFF704FF41F288321821786800F066
:10339800F7F9F861FB6918462037BD4680BD80B54E
:1033A80088B000AF786039600023FB613B68BB6080
:1033B8001923FB6040233B6100237B614FF480634A
:1033C800BB6107F1080319467868FFF7E0FE41F290
:1033D80088321921786800F0D3F9F861FB6918463A
:1033E8002037BD4680BD000080B588B000AF78604A
:1033F8000023FB610023BB600C23FB6040233B617F
:1034080000237B614FF48063BB6107F10803194611
:103418007868FFF7BCFE054A0C21786800F0B0F91F
:10342800F861FB6918462037BD4680BD00E1F50507
:1034380080B58AB000AFF860C7E9002300237B623B
:103448003B683B6107237B614023BB610023FB6131
:103458004FF480633B6207F110031946F868FFF7E1
:1034680096FE41F288320721F86800F089F97862FF
:103478007B6A18462837BD4680BD80B588B000AF46
:1034880078600023FB610023BB600023FB600023FE
:103498003B6100237B614FF48063BB6107F1080344
:1034A80019467868FFF773FE786800F03FF9F8610D
:1034B800FB6918462037BD4680BD80B588B000AF8F
:1034C80078600023FB614FF4D573BB600823FB6071
:1034D80040233B6100237B614FF48063BB6107F1AC
:1034E800080319467868FFF752FE786800F010FB69
:1034F800F861FB6918462037BD4680BD80B588B0A5
:1035080000AF786039600023FB613B68BB603723FC
:10351800FB6040233B6100237B614FF48063BB6108
:1035280007F1080319467868FFF731FE41F288323F
:103538003721786800F024F9F861FB6918462037CC
:10354800BD4680BD80B588B000AF78603960002383
:10355800FB613B6843F0004343F48013BB602923BD
:10356800FB6040233B6100237B614FF48063BB61B8
:1035780007F1080319467868FFF709FE786800F034
:1035880025FAF861FB6918462037BD4680BD80B52D
:1035980088B000AF786039600023FB613B68BB608E
:1035A8000623FB6040233B6100237B614FF480636B
:1035B800BB6107F1080319467868FFF7E8FD41F297
:1035C80088320621786800F0DBF8F861FB69184654
:1035D8002037BD4680BD80B588B000AF7860002335
:1035E800FB610023BB603323FB6040233B61002366
:1035F8007B614FF48063BB6107F108031946786863
:10360800FFF7C5FD41F288323321786800F0B8F839
:10361800F861FB6918462037BD4680BD80B588B083
:1036280000AF78600023FB610023BB600223FB60CE
:10363800C0233B6100237B614FF48063BB6107F1CA
:10364800080319467868FFF7A2FD786800F07EF94C
:10365800F861FB6918462037BD4680BD80B588B043
:1036680000AF786039600023FB613B68BB600923C9
:10367800FB60C0233B6100237B614FF48063BB6127
:1036880007F1080319467868FFF781FD786800F0AC
:103698005DF9F861FB6918462037BD4680BD80B5E5
:1036A80088B000AF786039600023FB610023BB60FD
:1036B8000323FB6040233B6100237B614FF480635D
:1036C800BB6107F1080319467868FFF760FD3A689F
:1036D8000321786800F0AEF9F861FB6918462037D5
:1036E800BD4680BD80B588B000AF786039600023E2
:1036F800FB613B68BB600D23FB6040233B610023FB
:103708007B614FF48063BB6107F108031946786851
:10371800FFF73DFD41F288320D21786800F030F85E
:10372800F861FB6918462037BD4680BD90B482B069
:1037380000AF7860104B1B68104AA2FB03235B0A9A
:1037480041F2883202FB03F423465C1E002B02D1AF
:103758004FF000430AE07B685B6B03F08003002BAB
:10376800F2D07B6840F2FF529A630023184608376C
:10377800BD4690BC704700BF08000020D34D6210C2
:1037880090B587B000AFF8600B467A60FB726C4B5F
:103798001B686C4AA2FB03235B0A7A6802FB03F4EA
:1037A80023465C1E002B02D14FF00043C3E0FB68A8
:1037B8005B6B03F04503002BF2D0FB685B6B03F0F7
:1037C8000403002B04D0FB6804229A630423B2E0AC
:1037D800FB685B6B03F00103002B04D0FB6801223C
:1037E8009A630123A7E0F868FFF7FBFC03461A4633
:1037F800FB7A934201D001239DE0FB6840F2FF521F
:103808009A630021F868FFF7F9FC78617A694E4BF2
:103818001340002B01D100238DE07B69002B02DAD5
:103828004FF0007387E07B6903F08043002B01D0E1
:10383800402380E07B6903F00053002B01D08023F4
:1038480079E07B6903F08053002B02D04FF480733A
:1038580071E07B6903F00063002B02D04FF4007322
:1038680069E07B6903F08063002B02D04FF480632A
:1038780061E07B6903F08073002B02D04FF4006392
:1038880059E07B6903F40003002B02D04FF4805306
:1038980051E07B6903F48003002B02D04FF40053FE
:1038A80049E07B6903F40013002B02D04FF48043F6
:1038B80041E07B6903F48013002B02D04FF40043EE
:1038C80039E07B6903F48023002B02D04FF40033E6
:1038D80031E07B6903F40033002B02D04FF48023DE
:1038E80029E07B6903F48033002B02D04FF40023D6
:1038F80021E07B6903F40043002B02D04FF48013CE
:1039080019E07B6903F48043002B02D04FF40013C5
:1039180011E07B6903F40053002B02D04FF48003BD
:1039280009E07B6903F00803002B02D04FF4000381
:1039380001E04FF4803318461C37BD4690BD00BFE8
:1039480008000020D34D621008E0FFFD90B482B05B
:1039580000AF78601B4B1B681B4AA2FB03235B0A62
:1039680041F2883202FB03F423465C1E002B02D18D
:103978004FF0004320E07B685B6B03F04503002BAE
:10398800F2D07B685B6B03F00403002B04D07B68E8
:1039980004229A6304230FE07B685B6B03F0010346
:1039A800002B04D07B6801229A63012304E07B6822
:1039B80040F2FF529A63002318460837BD4690BC70
:1039C800704700BF08000020D34D621090B482B049
:1039D80000AF7860154B1B68154AA2FB03235B0AEE
:1039E80041F2883202FB03F423465C1E002B02D10D
:1039F8004FF0004315E07B685B6B03F04503002B39
:103A0800F2D07B685B6B03F00403002B04D07B6867
:103A180004229A63042304E07B6840F2FF529A630D
:103A2800002318460837BD4690BC704708000020A0
:103A3800D34D621090B587B000AFF8600B467A603E
:103A4800FB72314B1B68314AA2FB03235B0A41F22C
:103A5800883202FB03F423465C1E002B02D14FF090
:103A680000434CE0FB685B6B03F04503002BF2D08E
:103A7800FB685B6B03F00403002B04D0FB68042293
:103A88009A6304233BE0FB685B6B03F00103002BA4
:103A980004D0FB6801229A63012330E0F868FFF73D
:103AA800A0FB03461A46FB7A934201D0012326E085
:103AB800FB6840F2FF529A630021F868FFF79EFB0B
:103AC80078617B6903F46043002B06D17B691B0C8A
:103AD8009AB27B681A80002311E07B6903F4804363
:103AE800002B02D04FF4005309E07B6903F4004334
:103AF800002B02D04FF4805301E04FF48033184676
:103B08001C37BD4690BD00BF08000020D34D621091
:103B180090B482B000AF7860184B1B68184AA2FBBB
:103B280003235B0A41F2883202FB03F423465C1E3E
:103B3800002B02D14FF000431AE07B685B6B03F067
:103B48004503002BF2D07B685B6B03F00403002B6A
:103B580004D07B6840229A63042309E07B685B6B8E
:103B680003F04003002B02D07B6840229A630023B5
:103B780018460837BD4690BC704700BF08000020B3
:103B8800D34D621080B584B000AF0346FB71FB795A
:103B9800084A9B0013445B685B68FA7905490A4444
:103BA800127A104698470346FB73FB7B184610377A
:103BB800BD4680BD5000002080B584B000AF0346EC
:103BC800FB710023FB73FB790D4AD35C002B11D1E9
:103BD800FB790B4A0121D154FB79094A9B00134414
:103BE8005B681B68FA7906490A44127A10469847B6
:103BF8000346FB73FB7B18461037BD4680BD00BFEC
:103C08005000002090B587B000AFB9607A603B6083
:103C18000346FB73FB7B0A4A9B0013445B689C6862
:103C2800FB7B074A1344187A3B687A68B968A0474F
:103C38000346FB75FB7D18461C37BD4690BD00BF8B
:103C48005000002090B587B000AFB9607A603B6043
:103C58000346FB73FB7B0A4A9B0013445B68DC68E2
:103C6800FB7B074A1344187A3B687A68B968A0470F
:103C78000346FB75FB7D18461C37BD4690BD00BF4B
:103C88005000002080B584B000AF03463A60FB7155
:103C98000B46BB71FB79094A9B0013445B681B699F
:103CA800FA7906490A44107AB9793A689847034676
:103CB800FB73FB7B18461037BD4680BD50000020C3
:103CC80080B485B000AF78607B6801331B78FB81D6
:103CD800FB891B021AB27B681B781BB213431BB209
:103CE800FB81FB8918461437BD465DF8047B704795
:103CF80080B485B000AF78607B6803331B78FB60C5
:103D0800FB681B027A68023212781343FB60FB6877
:103D18001B027A68013212781343FB60FB681B02AE
:103D28007A6812781343FB60FB6818461437BD465F
:103D38005DF8047B704780B483B000AF78600B46B1
:103D48007B807B685A1C7A607A88D2B21A707B882A
:103D58001B0A7B807B685A1C7A607A88D2B21A70F8
:103D680000BF0C37BD465DF8047B704780B483B054
:103D780000AF786039607B685A1C7A603A68D2B2C2
:103D88001A703B681B0A3B607B685A1C7A603A6869
:103D9800D2B21A703B681B0A3B607B685A1C7A6077
:103DA8003A68D2B21A703B681B0A3B607B685A1C9F
:103DB8007A603A68D2B21A7000BF0C37BD465DF817
:103DC800047B704780B487B000AFF860B9607A6050
:103DD800FB687B61BB683B617B68002B0DD07B690E
:103DE8005A1C7A613A69511C396112781A707B68D9
:103DF800013B7B607B68002BF1D100BF1C37BD46BF
:103E08005DF8047B704780B487B000AFF860B96094
:103E18007A60FB687B617B695A1C7A61BA68D2B2A6
:103E28001A707B68013B7B607B68002BF3D100BF75
:103E38001C37BD465DF8047B704780B489B000AF7D
:103E4800F860B9607A60FB68FB61BB68BB610023FE
:103E58007B61FB695A1CFA611B781946BB695A1CBD
:103E6800BA611B78CB1A7B617B68013B7B607B68FE
:103E7800002B02D07B69002BEBD07B6918462437D6
:103E8800BD465DF8047B704780B483B000AF7860AE
:103E9800396002E07B6801337B607B681B78002B0C
:103EA80005D07B681B781A463B689A42F2D17B683A
:103EB8001B7818460C37BD465DF8047B7047000038
:103EC80080B485B000AF786039600023BB60BB6800
:103ED800FB6029E0274AFB681B0113441B68002B81
:103EE8001DD0244AFB681B0113441A687B681B68B1
:103EF8009A4216D11F4AFB681B01134404331A68FF
:103F08007B689B689A420CD11A4AFB681B011344D0
:103F180008331A687B685B699A4202D107E001237B
:103F2800BB60FB680133FB60FB68012BD2D9FB68DF
:103F3800022B09D1BB68002B02D13B68022B01D1AF
:103F4800002310E012230EE03B68002B08D1094A39
:103F5800FB681B0113440C331B88B3F5807F01D128
:103F6800102300E0002318461437BD465DF8047B93
:103F7800704700BF3000002080B483B000AF00233A
:103F88007B6002E07B6801337B607B68012B06D88D
:103F9800094A7B681B0113441B68002BF2D17B681C
:103FA800022B14BF01230023DBB218460C37BD4691
:103FB8005DF8047B704700BF3000002080B485B0F6
:103FC80000AF786039600023FB601FE0414AFB685E
:103FD8001B0113441A687B681B689A4213D13D4A37
:103FE800FB681B01134404331A687B689B689A4278
:103FF80009D1384AFB681B01134408331A687B68E7
:104008005B699A4206D0FB680133FB60FB68012BB1
:10401800DCD900E000BFFB68022B32D10023FB6033
:1040280002E0FB680133FB60FB68012B06D8294AD4
:10403800FB681B0113441B68002BF2D1FB68022BA1
:1040480001D1002340E07B681A682249FB681B0104
:104058000B441A607B689A681E49FB681B010B4475
:1040680004331A607B685A691A49FB681B010B44C0
:1040780008331A60174AFB681B0113440C330022EB
:104088001A803B68002B09D0124AFB681B011344B5
:104098000C331B88002B01D0002315E03B68002B54
:1040A80008D10C4AFB681B0113440C331B880133ED
:1040B8009AB201E04FF480720649FB681B010B4479
:1040C8000C331A80FB68013318461437BD465DF877
:1040D800047B70473000002080B485B000AF786062
:1040E8007B68013B7B607B68012B25D8174A7B687E
:1040F8001B0113440C331B88FB81FB89B3F5807FBC
:1041080001D10023FB81FB89002B02D0FB89013BF5
:10411800FB810E4A7B681B0113440C33FA891A8011
:10412800FB89002B05D1094A7B681B011344002237
:104138001A6000237B7301E002237B737B7B1846A4
:104148001437BD465DF8047B704700BF300000207F
:1041580080B485B000AF78600023FB6010E00D4AA2
:10416800FB681B0113441A687B689A4205D1094A07
:10417800FB681B01134400221A60FB680133FB60D3
:10418800FB68012BEBD900BF1437BD465DF8047BF3
:10419800704700BF3000002080B586B000AF78605F
:1041A8000023FB737B68DB78002B34D07B681B6BA8
:1041B8007B617B6858787B6803F1340101237A6955
:1041C800FFF740FD0346002B02D00123FB7322E0DA
:1041D8007B680022DA707B685B6A7A69D21A7B682E
:1041E800DB699A4217D27B689B783B6110E07B6859
:1041F800DB697A6913447B617B6858787B6803F1D3
:10420800340101237A69FFF71DFD3B69013B3B61DE
:104218003B69012BEBD8FB7B18461837BD4680BDA0
:1042280080B584B000AF786039600023FB737B6889
:104238001A6B3B689A421BD07868FFF7ADFF0346BC
:10424800FB73FB7B002B13D17B6858787B6803F1E9
:10425800340101233A68FFF7D5FC0346002B04D04C
:104268004FF0FF333B600123FB737B683A681A63A6
:10427800FB7B18461037BD4680BD000080B584B072
:1042880000AF78607868FFF787FF0346FB73FB7B16
:10429800002B59D17B681B78032B49D17B681B798C
:1042A800012B45D17B6803F134007B689B891A4652
:1042B8000021FFF7A8FD7B68343303F5FF734AF646
:1042C80055211846FFF737FD7B68343321491846D6
:1042D800FFF74CFD7B68343303F5F2731E4918462B
:1042E800FFF744FD7B68343303F5F4727B685B6940
:1042F80019461046FFF73AFD7B68343303F5F6722A
:104308007B681B6919461046FFF730FD7B681B6AFE
:104318005A1C7B681A637B6858787B6803F1340100
:104328007B681A6B0123FFF78DFC7B6800221A71EA
:104338007B685B78002200211846FFF7A3FC034640
:10434800002B01D00123FB73FB7B18461037BD46B9
:1043580080BD00BF525261417272416180B483B026
:1043680000AF786039603B68023B3B607B689B69C3
:104378009A1E3B689A4201D8002308E07B685B8953
:104388001A463B6803FB02F27B68DB6A1344184653
:104398000C37BD465DF8047B704780B586B000AF2A
:1043A800786039607B681B683B613B68012B04D9E6
:1043B8003B699A693B689A4202D801237B61B7E05E
:1043C8004FF0FF337B613B691B78022B5AD0032BDC
:1043D8007DD0012B40F0A2803B68FB60FB685B0846
:1043E800FA681344FB603B695A6A3B699B89194622
:1043F800FB68B3FBF1F3134419463869FFF710FF64
:104408000346002B40F08D80FB685A1CFA603A691D
:104418009289B3FBF2F102FB01F29B1A3A69134449
:1044280093F83430BB603B695A6A3B699B891946EB
:10443800FB68B3FBF1F3134419463869FFF7F0FE44
:104448000346002B6FD13B699B891A46FB68B3FB77
:10445800F2F102FB01F29B1A3A69134493F83430E3
:104468001B021A46BB681343BB603B6803F0010399
:10447800002B02D0BB681B0902E0BB68C3F30B0327
:104488007B6155E03B695A6A3B699B895B089BB233
:1044980019463B68B3FBF1F3134419463869FFF733
:1044A800BFFE0346002B40D13B6903F134013B6852
:1044B8005B003A699289B3FBF2F002FB00F29B1AA7
:1044C8000B441846FFF7FCFB03467B6130E03B6971
:1044D8005A6A3B699B899B089BB219463B68B3FBA8
:1044E800F1F3134419463869FFF79AFE0346002B87
:1044F8001DD13B6903F134013B689B003A699289FD
:10450800B3FBF2F002FB00F29B1A0B441846FFF7CC
:10451800EFFB034623F070437B6109E001237B61D5
:1045280006E000BF04E000BF02E000BF00E000BFFB
:104538007B6918461837BD4680BD90B589B000AF75
:10454800F860B9607A600223FB77BB68012B40F200
:104558000681FB689A69BB689A4240F20081FB6851
:104568001B78022B00F08880032B00F0B080012B11
:1045780040F0F580BB68BB61BB695B08BA6913444E
:10458800BB61FB685A6AFB689B891946BB69B3FB28
:10459800F1F313441946F868FFF742FE0346FB7728
:1045A800FB7F002B40F0D480FB6803F13401BB692A
:1045B8005A1CBA61FA689289B3FBF2F002FB00F266
:1045C8009B1A0B447B61BB6803F00103002B0DD0E1
:1045D8007B691B785BB203F00F035AB27B68DBB2CE
:1045E8001B015BB213435BB2DBB201E07B68DBB259
:1045F8007A691370FB680122DA70FB685A6AFB68F3
:104608009B891946BB69B3FBF1F313441946F86853
:10461800FFF706FE0346FB77FB7F002B40F09A80EE
:10462800FB6803F13401FB689B891A46BB69B3FB3D
:10463800F2F002FB00F29B1A0B447B61BB6803F0AB
:104648000103002B03D07B681B09DBB20EE07B69FA
:104658001B785BB223F00F035AB27B681B0A5BB26C
:1046680003F00F035BB213435BB2DBB27A691370DA
:10467800FB680122DA7072E0FB685A6AFB689B8962
:104688005B089BB21946BB68B3FBF1F313441946A8
:10469800F868FFF7C5FD0346FB77FB7F002B5BD16E
:1046A800FB6803F13401BB685B00FA689289B3FBCD
:1046B800F2F002FB00F29B1A0B447A6892B21146A0
:1046C8001846FFF738FBFB680122DA7047E0FB6801
:1046D8005A6AFB689B899B089BB21946BB68B3FB67
:1046E800F1F313441946F868FFF79AFD0346FB7780
:1046F800FB7F002B32D17B6823F07044FB6803F109
:104708003401BB689B00FA689289B3FBF2F002FBA4
:1047180000F29B1A0B441846FFF7EAFA034603F027
:10472800704323437B60FB6803F13401BB689B0043
:10473800FA689289B3FBF2F002FB00F29B1A0B4471
:1047480079681846FFF712FBFB680122DA7006E069
:1047580000BF04E000BF02E000BF00E000BFFB7F35
:1047680018462437BD4690BD80B588B000AFF860C4
:10477800B9607A600023FB77FB681B68BB61BB6884
:10478800012B04D9BB699A69BB689A4201D80223F4
:104798004BE07B68002B0CD04FF0FF327968B8698A
:1047A800FFF7CBFE0346FB77FB7F002B01D0FB7F97
:1047B8003BE0B968F868FFF7F0FD78617B69002B8A
:1047C80031D07B69012B01D102232EE07B69B3F143
:1047D800FF3F01D1012328E00022B968B869FFF73B
:1047E800ACFE0346FB77FB7F002B01D0FB7F1CE070
:1047F800BB695A69BB699B69023B9A420BD2BB6988
:104808005B695A1CBB695A61BB691B7943F0010398
:10481800DAB2BB691A717B69BB60BB699A69BB680C
:104828009A42C6D800E000BF002318462037BD468C
:1048380080BD80B588B000AF786039607B681B6840
:104848003B613B68002B0DD13B691B69BB61BB69B0
:10485800002B04D03B699A69BB699A421BD8012393
:10486800BB6118E039687868FFF797FDF860FB6866
:10487800012B01D8012370E0FB68B3F1FF3F01D1A0
:10488800FB686AE03B699A69FB689A4201D9FB6850
:1048980063E03B68BB61BB69FB61FB690133FB619A
:1048A8003B699A69FB699A4207D80223FB61FA6956
:1048B800BB699A4201D900234FE0F9697868FFF78C
:1048C8006CFDF860FB68002B0ED0FB68012B03D051
:1048D800FB68B3F1FF3F01D1FB683EE0FA69BB69B1
:1048E8009A42DAD1002338E000BF4FF0FF32F9696D
:1048F8003869FFF722FE0346FB75FB7D002B09D1C3
:104908003B68002B06D0FA6939683869FFF715FE4D
:104918000346FB75FB7D002B16D13B69FA691A61CA
:104928003B695A693B699B69023B9A4204D83B69D7
:104938005B695A1E3B695A613B691B7943F0010365
:10494800DAB23B691A7107E0FB7D012B02D14FF007
:10495800FF3300E00123FB61FB6918462037BD46A1
:1049680080BD80B487B000AF786039607B681B6811
:10497800FB607B68DB6A04333B61FB689B891A46F2
:104988003B68B3FBF2F3FA685289B3FBF2F37B613D
:104998003B691A1D3A611B68BB60BB68002B01D1DB
:1049A800002310E07A69BB689A4207D37A69BB682A
:1049B800D31A7B613B6904333B61E9E700BF3B697C
:1049C8001A687B69134418461C37BD465DF8047B9A
:1049D800704780B586B000AF786039607B681B6827
:1049E8003B613B68B3F5001F04D23B6803F01F032B
:1049F800002B01D0022371E07B683A685A617B681A
:104A08009B687B617B69002B06D13B691B78022B75
:104A180002D93B699B6A7B617B69002B0CD13B689F
:104A28005B093A691289934201D3022356E03B6934
:104A38009A6A7B68DA612DE03B695B891A463B69B3
:104A48009B8903FB02F3FB6019E07B6879691846D0
:104A5800FFF7A3FC78617B69B3F1FF3F01D1012324
:104A68003CE07B69012B04D93B699A697B699A42CE
:104A780001D8022332E03A68FB68D31A3B603A68EF
:104A8800FB689A42E1D279693869FFF767FC024608
:104A98007B68DA617B687A699A617B68DB69002BDD
:104AA80001D102231AE07B68DA693B699B891946C0
:104AB8003B68B3FBF1F31A447B68DA613B6903F1A5
:104AC80034013B699B891A463B68B3FBF2F002FB51
:104AD80000F29B1ACA187B681A6200231846183716
:104AE800BD4680BD80B586B000AF786039607B6810
:104AF8001B68FB607B685B692033BB607B68DB6994
:104B0800002B03D0BB68B3F5001F01D30423BBE01F
:104B1800FB689B891A46BB68B3FBF2F102FB01F202
:104B28009B1A002B40F09D807B68DB695A1C7B68D0
:104B3800DA617B689B69002B0BD1BB685B09FA685B
:104B480012899342C0F08D807B680022DA610423C9
:104B58009AE0FB689B891A46BB68B3FBF2F3FA68D4
:104B68005289013A1340002B7BD17A687B689B6994
:104B780019461046FFF711FC78617B69012B01D8B3
:104B8800022381E07B69B3F1FF3F01D101237BE080
:104B9800FB689A697B699A4259D83B68002B04D113
:104BA8007B680022DA6104236EE07A687B689B697F
:104BB80019461046FFF73DFE78617B69002B01D14D
:104BC800072361E07B69012B01D102235CE07B694B
:104BD800B3F1FF3F01D1012356E0F868FFF7DCFA93
:104BE8000346002B01D001234EE0FB6803F134009B
:104BF800FB689B891A460021FFF705F900233B61F2
:104C08007969F868FFF7AAFB0246FB681A6312E0A5
:104C1800FB680122DA70F868FFF7BEFA0346002B3A
:104C280001D0012330E03B6901333B61FB681B6B1A
:104C38005A1CFB681A63FB685B891A463B699A42EF
:104C4800E6D8FB681A6B3B69D21AFB681A637B6863
:104C58007A699A617969F868FFF780FB02467B6890
:104C6800DA617B68BA685A61FB6803F13401FB6852
:104C78009B891A46BB68B3FBF2F002FB00F29B1A51
:104C8800CA187B681A62002318461837BD4680BDCB
:104C980080B586B000AF786039607B681B68FB60C0
:104CA80000217868FFF795FE0346FB75FB7D002B16
:104CB8002BD100233B617B68DB691946F868FFF755
:104CC800AFFA0346FB75FB7D002B1DD17B681B6A81
:104CD8001B78E52B04D07B681B6A1B78002B07D157
:104CE8003B6901333B613A693B689A4202D10CE067
:104CF80000233B6101217868FFF7F4FE0346FB754A
:104D0800FB7D002BD7D000E000BFFB7D042B01D139
:104D18000723FB75FB7D18461837BD4680BD80B557
:104D280084B000AF786039603B681A331846FEF7E4
:104D3800C7FF0346FB607B681B78032B09D13B68E0
:104D480014331846FEF7BCFF03461B04FA681343E6
:104D5800FB60FB6818461037BD4680BD80B584B03F
:104D680000AFF860B9607A60BB681A337A6892B2AB
:104D780011461846FEF7DFFFFB681B78032B09D1A5
:104D8800BB6803F114027B681B0C9BB219461046E2
:104D9800FEF7D1FF00BF1037BD4680BD80B586B095
:104DA80000AF78607B681B683B6100217868FFF77B
:104DB80010FE0346FB75FB7D002B01D0FB7D3EE01A
:104DC8007B68DB6919463869FFF72AFA0346FB75E1
:104DD800FB7D002B2FD17B681B6A1B78FB73FB7B49
:104DE800002B02D10423FB7528E07B681B6A0B3378
:104DF8001B7803F03F03DAB27B689A717B681B6A01
:104E08000B331B7803F00803002B0AD17B68186A60
:104E18007B6824330B221946FFF70FF80346002B53
:104E28000BD000217868FFF75DFE0346FB75FB7D1C
:104E3800002BC5D002E000BF00E000BFFB7D184694
:104E48001837BD4680BD80B584B000AF78607B68F8
:104E58001B68BB6001217868FFF71AFF0346FB73E4
:104E6800FB7B002B1CD17B68DB691946B868FFF710
:104E7800D7F90346FB73FB7B002B11D17B681B6AB8
:104E8800202200211846FEF7BEFF7B68186A7B685F
:104E980024330B221946FEF795FFBB680122DA700E
:104EA800FB7B18461037BD4680BD000080B588B032
:104EB80000AF786039603B681B68FB607B6824330F
:104EC800BB600B222021B868FEF79DFF00233B61E1
:104ED8003B697B610823BB617B695A1C7A61FA686C
:104EE80013441B78FB77FB7F202B4ED9FB7F2F2B9E
:104EF80006D0FB7F5C2B10D102E07B6901337B611C
:104F0800FA687B6913441B782F2BF6D0FA687B6903
:104F180013441B785C2BF0D038E0FB7F2E2B03D09A
:104F28003A69BB699A420CD3BB690B2B02D0FB7F51
:104F38002E2B01D0062344E008233B610B23BB61E1
:104F480022E097F91F30002B04DAFB7F803B1F4AD1
:104F5800D35CFB77FB7F19461D48FEF795FF034698
:104F6800002B01D006232CE0FB7F602B05D9FB7FAB
:104F78007A2B02D8FB7F203BFB773B695A1C3A61AE
:104F8800BA681344FA7F1A70A6E700BFFA687B690B
:104F98001A443B681A603B69002B01D1062310E0D4
:104FA800BB681B78E52B02D1BB6805221A70BB6869
:104FB8000B33FA7F202A01D8042200E000221A705D
:104FC800002318462037BD4680BD00BF706C00081E
:104FD800C86B000880B586B000AF786039607B6820
:104FE8003B613B691B68FB6002E03B6801333B6047
:104FF8003B681B782F2BF8D03B681B785C2BF4D0D0
:105008003B6900229A603B681B781F2B0AD87B6893
:10501800802283F82F2000217868FFF7DAFC034606
:10502800FB7548E03B4619467868FFF73FFF0346A3
:10503800FB75FB7D002B39D17868FFF7AFFE03467F
:10504800FB757B6893F82F30FB72FB7D002B0AD031
:10505800FB7D042B2CD1FB7A03F00403002B27D112
:105068000523FB7524E0FB7A03F00403002B21D110
:105078003B699B7903F01003002B02D10523FB75D4
:1050880019E0FB6803F134017B685B69FA6892896F
:10509800B3FBF2F002FB00F29B1A0B441946F868C6
:1050A800FFF73DFE02463B699A60BBE700BF02E09E
:1050B80000BF00E000BFFB7D18461837BD4680BD25
:1050C80080B487B000AF78604FF0FF333B617B68F6
:1050D8001B68002B31D07B681B687B6102E07B6911
:1050E80001337B617B691B78202B03D97B691B7893
:1050F8003A2BF4D17B691B783A2B1CD17B681B684F
:10510800FB60FB685A1CFA601B78303BBB60BB68CD
:10511800092B0ED8FA687B699A420AD1BB68002B22
:1051280007D1BB683B617B6901337B617B687A6926
:105138001A603B6902E000233B613B6918461C3753
:10514800BD465DF8047B704780B582B000AF7860DB
:1051580039607B680022DA707B684FF0FF321A638F
:1051680039687868FFF75CF80346002B01D0042300
:1051780038E07B68343303F5FF731846FEF7A0FD6B
:1051880003461A464AF655239A4201D0032329E0DA
:105198007B6893F83430E92B09D07B6893F8343076
:1051A800EB2B1ED17B6893F83630902B19D17B6896
:1051B800343336331846FEF79BFD034623F07F430E
:1051C8000A4A934201D100230CE07B6834335233FE
:1051D8001846FEF78DFD0246054B9A4201D1002381
:1051E80000E0022318460837BD4680BD46415400FA
:1051F8004641543380B596B000AFF860B9601346A5
:10520800FB71BB6800221A60F868FFF759FFF86362
:10521800FB6B002B01DA0B2365E2B04AFB6B52F8FB
:105228002330BB63BB6B002B01D10C235BE2BB6853
:10523800BA6B1A60FB7923F00103FB71BB6B1B7817
:10524800002B1AD0BB6B5B781846FEF79BFC034615
:1052580087F8373097F8373003F00103002B0CD16B
:10526800FB79002B07D097F8373003F00403002BA5
:1052780001D00A2337E2002335E2BB6B00221A7003
:10528800FB6BDAB2BB6B5A70BB6B5B781846FEF7E8
:1052980093FC034687F8373097F8373003F001035B
:1052A800002B01D003231EE2FB79002B07D097F8CF
:1052B800373003F00403002B01D00A2313E2BB6B41
:1052C8005878BB6B0C331A460221FEF7DBFC034609
:1052D800002B01D0012306E2BB6B9B89B3F5805FED
:1052E8000DD8BB6B9B89B3F5007F08D3BB6B9B893B
:1052F8001A46BB6B9B89013B1340002B01D001234D
:10530800F1E100233B65396DB86BFFF71DFF0346DC
:1053180087F8573097F85730022B4BD100233B645E
:105328001FE0BB6B03F134023B6C1B0103F5DF7319
:1053380013443B633B6B04331B78002B06D03B6B59
:1053480008331846FEF7D4FC024600E000223B6C06
:105358009B0007F158010B4443F8442C3B6C013384
:105368003B643B6C032BDCD900233B643B6C002B78
:1053780002D03B6C013B3B643B6C9B0007F158023D
:10538800134453F8443C3B653B6D002B05D0396D05
:10539800B86BFFF7D9FE034600E0032387F85730C0
:1053A80097F85730012B05D93B6C01333B643B6CB4
:1053B800032BE1D997F85730042B01D1012392E14F
:1053C80097F85730012B01D90D238CE1BB6B34338F
:1053D8000B331846FEF774FC03461A46BB6B9B89D1
:1053E8009A4201D00D237EE1BB6B34331633184645
:1053F800FEF766FC0346FB64FB6C002B06D1BB6B17
:10540800343324331846FEF773FCF864BB6BFA6C2C
:10541800DA61BB6B93F84420BB6B9A70BB6B9B78CB
:10542800012B05D0BB6B9B78022B01D00D235AE1D1
:10543800BB6B9B781A46FB6C02FB03F3FB64BB6BEC
:1054480093F841309AB2BB6B5A81BB6B5B89002BD6
:1054580008D0BB6B5B891A46BB6B5B89013B134069
:10546800002B01D00D233EE1BB6B343311331846BA
:10547800FEF726FC03461A46BB6B1A81BB6B1B89D9
:10548800BA6B9289520992B2B3FBF2F102FB01F2B4
:105498009B1A9BB2002B01D00D2324E1BB6B343344
:1054A80013331846FEF70CFC0346BB64BB6C002B99
:1054B80006D1BB6B343320331846FEF719FCB864A9
:1054C800BB6B34330E331846FEF7FAFB0346FB85F5
:1054D800FB8D002B04D10D2305E100BF280000201F
:1054E800FA8DFB6C1344BA6B1189BA6B9289520915
:1054F80092B2B1FBF2F292B21344BB62BA6CBB6ACD
:105508009A4201D20D23EEE0BA6CBB6AD31ABA6B89
:105518005289B3FBF2F37B627B6A002B01D10D2326
:10552800E1E0032387F857307B6A4FF6F572934220
:1055380002D8022387F857307B6A40F6F572934207
:1055480002D8012387F857307B6A9A1CBB6B9A6193
:10555800BB6B3A6D1A62FA8D3B6D1A44BB6B5A628B
:105568003A6DBB6A1A44BB6BDA6297F85730032B63
:105578001ED1BB6B34332A331846FEF7A1FB034612
:10558800002B01D00D23AEE0BB6B1B89002B01D093
:105598000D23A8E0BB6B34332C331846FEF7A8FB69
:1055A8000246BB6B9A62BB6B9B699B007B641FE0E6
:1055B800BB6B1B89002B01D10D2394E0BB6B5A6A8E
:1055C800FB6C1A44BB6B9A6297F85730022B03D1D5
:1055D800BB6B9B695B000AE0BB6B9A6913465B0077
:1055E80013445A08BB6B9B6903F0010313447B64A3
:1055F800BB6BDA69BB6B9B8919467B6C0B44013B1F
:10560800B96B8989B3FBF1F39A4201D20D236AE0A1
:10561800BB6B4FF0FF325A61BB6B5A69BB6B1A61A7
:10562800BB6B80221A7197F85730032B49D1BB6B9B
:10563800343330331846FEF743FB0346012B40D181
:105648003B6D01331946B86BFEF7EAFD0346002BA4
:1056580037D1BB6B00221A71BB6B343303F5FF7370
:105668001846FEF72DFB03461A464AF655239A427A
:1056780027D1BB6B34331846FEF73AFB02461C4B66
:105688009A421ED1BB6B343303F5F2731846FEF70A
:105698002FFB0246174B9A4213D1BB6B343303F5E9
:1056A800F4731846FEF724FB0246BB6B5A61BB6BCA
:1056B800343303F5F6731846FEF71AFB0246BB6B44
:1056C8001A61BB6B97F857201A700B4B1B88013374
:1056D8009AB2094B1A80084B1A88BB6BDA80B86BF0
:1056E800FEF736FD002318465837BD4680BD00BF7B
:1056F80052526141727241612C00002080B584B021
:1057080000AF786039607B68002B1AD07B681B6813
:10571800002B16D07B681B681B78002B11D07B6888
:105728001B68DA887B689B889A420AD17B681B6869
:105738005B781846FEF726FA034603F00103002BB0
:1057480005D03B6800221A600923FB7305E07B68DB
:105758001A683B681A600023FB73FB7B18461037F6
:10576800BD4680BD80B588B000AFF860B96013460B
:10577800FB71BB683B6107F110031846FFF7A0FCFB
:10578800F861FB69002B01DA0B232BE0174AFB6950
:1057980052F82330BB61BB69002B05D0B869FEF70E
:1057A800D7FCBB6900221A70FB68002B02D0FB688B
:1057B80000221A70FA680D49FB6941F82320FB683A
:1057C800002B02D0FB79012B01D000230AE007F15E
:1057D8000C0107F1080300221846FFF70BFD0346EA
:1057E800FB75FB7D18462037BD4680BD280000208C
:1057F80080B598B000AFF860B9601346FB71FB68DC
:10580800002B01D10923BBE1FB7903F03F03FB71B6
:10581800FA7907F1100107F108031846FFF7EAFCC7
:10582800034687F85F3097F85F30002B40F09F8180
:105838003B697B61BA6807F1140311461846FFF704
:10584800C9FB034687F85F3097F85F30002B1AD101
:1058580097F843305BB2002B03DA062387F85F30F2
:1058680011E0FB7923F00103002B14BF012300236F
:10587800DBB21A4607F1140311461846FEF720FB5F
:10588800034687F85F30FB7903F01C03002B7FD0B9
:1058980097F85F30002B17D097F85F30042B0ED1A4
:1058A800FEF76AFB0346002B06D007F114031846DF
:1058B800FFF7C9FA034600E0122387F85F30FB7947
:1058C80043F00803FB7110E0BB7E03F01103002BCB
:1058D80003D0072387F85F3007E0FB7903F0040360
:1058E800002B02D0082387F85F3097F85F30002B31
:1058F80068D1FB7903F00803002B63D000F0C0FCEB
:1059080038657B6B0E33396D1846FEF72FFA7B6BC3
:105918001633396D1846FEF729FA7B6B0B332022B4
:105928001A703B697A6B11461846FFF7F8F9F86464
:105938003B69796B00221846FFF710FA7B6B1C3322
:1059480000211846FEF712FA3B690122DA70FB6C57
:10595800002B37D03B691B6B3B6507F11403002212
:10596800F96C1846FEF700FF034687F85F3097F892
:105978005F30002B26D13B69396D1846FEF750FC85
:10598800034687F85F303B69FA6C013A1A6119E0FF
:1059980097F85F30002B15D1BB7E03F01003002B66
:1059A80003D0042387F85F300CE0FB7903F002038F
:1059B800002B07D0BB7E03F00103002B02D0072386
:1059C80087F85F3097F85F30002B28D1FB7903F018
:1059D8000803002B03D0FB7943F04003FB713B69BC
:1059E8001A6BFB685A627A6BFB689A62FB7923F040
:1059F8000103002B14BF01230023DBB21A4607F171
:105A0800140311461846FEF7D9FA0246FB681A61D4
:105A1800FB681B69002B02D1022387F85F3097F8D7
:105A28005F30002B40F0A3803B697A6B1146184623
:105A3800FFF775F90246FB689A607B6B1C331846C2
:105A4800FEF756F90246FB68DA60FB680022DA6264
:105A58003A69FB681A603B69DA88FB689A80FB68D8
:105A6800FA791A75FB6800225A75FB6800221A62D7
:105A7800FB6800229A61FB6830334FF480520021A2
:105A88001846FEF7C0F9FB7903F02003002B6ED00F
:105A9800FB68DB68002B6AD0FB68DA68FB689A61F0
:105AA8003B695B891A463B699B8903FB02F3BB642C
:105AB800FB689B68BB65FB68DB687B6516E0FB6879
:105AC800B96D1846FEF769FCB865BB6D012B02D8A5
